:100000000C94F4000C941C010C941C010C941C0125
:100010000C941C010C941C010C941C010C941C01EC
:100020000C941C010C941C010C941C010C941C01DC
:100030000C941C010C941C010C941C010C941C01CC
:100040000C94CD040C941C010C943D050C941705E4
:100050000C941C010C941C010C941C010C941C01AC
:100060000C941C010C941C010000000023002600CD
:1000700029004E656E68756D20626F74616F207027
:1000800072657373696F6E61646F00202020202099
:10009000202020202020202020202000426F74617A
:1000A0006F2064657465637461646F3A20444952DB
:1000B00045495441003E20446972656974612020BD
:1000C000202020202000426F74616F2064657465D9
:1000D000637461646F3A2045535155455244410061
:1000E0003C204573717565726461202020202020BA
:1000F00000426F74616F2064657465637461646F3E
:100100003A20424149584F007620426169786F2079
:10011000202020202020202000426F74616F206466
:10012000657465637461646F3A2043494D41005EB4
:100130002043696D612020202020202020202000E5
:100140002020496E696369616E646F2E2E2E202017
:100150000041726475696E6F20436F6E736F6C65DA
:10016000200054657374616E646F20626F746F65F4
:10017000732E004C43443A204F4B20202020202057
:100180002020200041706572746520756D20626FBB
:1001900074616F3A0000000000240027002A00006C
:1001A000000000250028002B0004040404040404BB
:1001B0000402020202020203030303030301020416
:1001C00008102040800102040810200102040810D9
:1001D00020000000080002010000030407000000E6
:1001E0000000000000006F0511241FBECFEFD8E013
:1001F000DEBFCDBF11E0A0E0B1E0ECEFFEE002C059
:1002000005900D92A232B107D9F721E0A2E2B1E048
:1002100001C01D92AE3FB207E1F710E0C4EFD0E09D
:1002200004C02197FE010E947607C33FD107C9F79A
:100230000E94ED050C947C070C940000833081F043
:1002400028F4813099F08230A9F008958730A9F020
:100250008830C9F08430B1F4809180008F7D03C074
:10026000809180008F7780938000089584B58F7788
:1002700084BD089584B58F7DFBCF8091B0008F77CA
:100280008093B00008958091B0008F7DF9CF1F93C7
:10029000CF93DF93282F30E0F901EF52FE4F849186
:1002A000F901E354FE4FD491F901E755FE4FC49193
:1002B000CC23A9F0162F81110E941E01EC2FF0E033
:1002C000EE0FFF1FE156FE4FA591B4918FB7F89442
:1002D000EC91111108C0D095DE23DC938FBFDF9124
:1002E000CF911F910895DE2BF8CFCF93DF9390E04D
:1002F000FC01E354FE4F249187559E4FFC018491ED
:100300008823D1F090E0880F991FFC01EB56FE4F37
:10031000A591B491FC01E156FE4FC591D4916111B4
:100320000EC09FB7F8948C91E22FE0958E238C93AA
:100330002881E223E8839FBFDF91CF9108958FB793
:10034000F894EC91E22BEC938FBFF6CFEF92FF92F3
:100350000F931F93CF93DF938C017B01D0E0C0E01C
:10036000F701EC0FFD1F6491662361F0D801ED9158
:10037000FC910190F081E02DC8010995892B11F0C5
:100380002196EECFCE01DF91CF911F910F91FF907B
:10039000EF900895AF92BF92CF92DF92EF92FF92CB
:1003A0000F931F93CF93DF936C017B018B01040F9D
:1003B000151FEB015E01AE18BF08C017D10759F039
:1003C0006991D601ED91FC910190F081E02DC6017B
:1003D0000995892B79F7C501DF91CF911F910F9175
:1003E000FF90EF90DF90CF90BF90AF900895CF93A4
:1003F000DF93BC0189E491E00E94A601EC0142E098
:1004000050E06EE171E089E491E00E94CA018C0F36
:100410009D1FDF91CF910895FC01538D448D252FB1
:1004200030E0842F90E0821B930B541710F0CF968E
:10043000089501970895FC01918D828D981761F0C0
:10044000A28DAE0FBF2FB11D5D968C91928D9F5FD7
:100450009F73928F90E008958FEF9FEF0895FC01B6
:10046000918D828D981731F0828DE80FF11D858D69
:1004700090E008958FEF9FEF0895FC01918D228DFC
:10048000892F90E0805C9F4F821B91098F73992781
:10049000089589E491E00E943D0221E0892B09F44E
:1004A00020E0822F089580E090E0892B29F00E94BF
:1004B000490281110C9400000895FC01A48DA80F3D
:1004C000B92FB11DA35ABF4F2C91848D90E0019696
:1004D0008F739927848FA689B7892C93A089B189B6
:1004E0008C91837080648C93938D848D981306C057
:1004F0000288F389E02D80818F7D80830895EF92BB
:10050000FF920F931F93CF93DF93EC0181E0888FCD
:100510009B8D8C8D98131AC0E889F989808185FF9D
:1005200015C09FB7F894EE89FF896083E889F9893F
:1005300080818370806480839FBF81E090E0DF9141
:10054000CF911F910F91FF90EF900895F62E0B8D94
:1005500010E00F5F1F4F0F731127E02E8C8D8E114F
:100560000CC00FB607FCFACFE889F989808185FFB6
:10057000F5CFCE010E945D02F1CFEB8DEC0FFD2F88
:10058000F11DE35AFF4FF0829FB7F8940B8FEA8971
:10059000FB8980818062CFCFCF93DF93EC01888D80
:1005A0008823B9F0AA89BB89E889F9898C9185FDEE
:1005B00003C0808186FD0DC00FB607FCF7CF8C917C
:1005C00085FFF2CF808185FFEDCFCE010E945D02D5
:1005D000E9CFDF91CF910895089590E080E00895EC
:1005E000CF92DF92EF92FF920F931F93CF93DF93FF
:1005F000DC017B01EA018901FC01EF52FE4F84918D
:10060000FD01E354FE4FD490FD01E755FE4FC49029
:10061000CC2079F081110E941E01EC2DF0E0EE0F4C
:10062000FF1FE859FF4FA591B491EC91DE2281E0C4
:1006300009F480E0F7019081981791F09FB7F89442
:1006400040914501509146016091470170914801E8
:100650009FBFF8014083518362837383F7018083D6
:100660009FB7F89440914501509146016091470130
:10067000709148019FBFF80100811181228133816F
:10068000401B510B620B730B433351056105710520
:1006900008F088838881DF91CF911F910F91FF909F
:1006A000EF90DF90CF900895CF93DF93EC0160E05F
:1006B0008E810E94470161E08E810E94470160E0C7
:1006C0008E810E9447018BE891E00197F1F7DF915D
:1006D000CF910895CF92DF92EF92FF920F931F93E5
:1006E000CF93DF936C018C01095F1F4FD0E0C0E016
:1006F000E62EF12C61E0F80181918F010E947501D5
:10070000B7010C2E02C0759567950A94E2F76170E7
:10071000F801319780810E9447012196C430D105AC
:1007200049F7C601DF91CF911F910F91FF90EF9094
:10073000DF90CF900C945403CF92DF92EF92FF9210
:100740000F931F93CF93DF93EC01F62E642F8C81D0
:100750000E9447018D818F3F19F060E00E944701A0
:100760000F2D10E08F8584FF2BC06E0187E0C80E2F
:10077000D11CF12CE12C61E0F60181916F010E9406
:100780007501B8010E2C02C0759567950A94E2F7C1
:100790006170F601319780810E944701FFEFEF1AE7
:1007A000FF0A88E0E816F10431F7CE01DF91CF911E
:1007B0001F910F91FF90EF90DF90CF900C94540316
:1007C000B80184E0759567958A95E1F7CE010E949E
:1007D0006A036F2DCE01DF91CF911F910F91FF9092
:1007E000EF90DF90CF900C946A0340E0682F86EE84
:1007F00091E00C949C039091F901891710F08FEF10
:10080000890FE82FF0E0EA51FE4F848980680C944C
:10081000F503CF93C82F81E00E94FB03C23021F182
:1008200058F4C130B1F06BE870E086EE91E00E94C0
:10083000A60182E790E015C0C330F9F0C43099F703
:1008400065EB70E086EE91E00E94A6018CE990E0F5
:1008500008C06FE271E086EE91E00E94A60189E196
:1008600091E0CF910C94F70168E071E086EE91E0A1
:100870000E94A60181EF90E0F4CF60EE70E086EE7A
:1008800091E00E94A60186EC90E0EBCF81E00E940F
:10089000F5038BE39FE10197F1F70895CF93DF9381
:1008A000823029F49091F50198609093F50180933E
:1008B000F9011092FA0180E48093FB0180E18093BA
:1008C000FC0180E58093FD018BE39DE00197F1F74A
:1008D00060E08091EA010E94470160E08091EC01B4
:1008E0000E9447018091EB018F3F19F060E00E9468
:1008F00047018091F50184FD34C063E086EE91E00C
:100900000E946A03CBE4D6E4CE010197F1F763E0DD
:1009100086EE91E00E946A032197F1F763E086EE8C
:1009200091E00E946A0383E592E00197F1F762E0AB
:1009300086EE91E00E946A038091F50180620E9438
:10094000F50384E08093F6018CE00E94F5030E9499
:10095000460482E08093F70186E0DF91CF910C940A
:10096000F50380620E94F5038BE496E40197F1F7AA
:100970008091F50180620E94F50383E592E0019782
:10098000F1F78091F50180620E94F503D5CF41E037
:100990000E949C0381E090E008951F920F920FB691
:1009A0000F9211242F933F938F939F93AF93BF93F5
:1009B0008091450190914601A0914701B091480175
:1009C0003091440123E0230F2D3758F50196A11DE6
:1009D000B11D209344018093450190934601A0935B
:1009E0004701B09348018091400190914101A0914D
:1009F0004201B09143010196A11DB11D80934001B8
:100A000090934101A0934201B0934301BF91AF91F4
:100A10009F918F913F912F910F900FBE0F901F903C
:100A2000189526E8230F0296A11DB11DD2CF1F9263
:100A30000F920FB60F9211242F933F934F935F9312
:100A40006F937F938F939F93AF93BF93EF93FF9396
:100A500089E491E00E945D02FF91EF91BF91AF9117
:100A60009F918F917F916F915F914F913F912F91C6
:100A70000F900FBE0F901F9018951F920F920FB6F8
:100A80000F9211242F938F939F93EF93FF93E091F5
:100A90005901F0915A018081E0915F01F09160016C
:100AA00082FD1BC09081809162018F5F8F732091C6
:100AB0006301821741F0E0916201F0E0E75BFE4FD5
:100AC000958F80936201FF91EF919F918F912F916C
:100AD0000F900FBE0F901F9018958081F4CF109249
:100AE0004C0110924B0188EE93E0A0E0B0E08093BF
:100AF0004D0190934E01A0934F01B093500184E0BB
:100B000091E090934A018093490185EC90E09093A5
:100B100056018093550184EC90E0909358018093A6
:100B2000570180EC90E090935A018093590181EC39
:100B300090E090935C0180935B0182EC90E0909355
:100B40005E0180935D0186EC90E09093600180935C
:100B50005F01109262011092630110926401109281
:100B600065011092E9011092E80186E191E090930D
:100B7000E7018093E6018CE08093EA018FEF809398
:100B8000EB018BE08093EC0185E08093ED0184E044
:100B90008093EE0183E08093EF0182E08093F00187
:100BA0001092F1011092F2011092F3011092F401EF
:100BB00061E08CE00E9475018091EB018F3F19F09C
:100BC00061E00E94750161E08091EC010E94750175
:100BD0001092F50181E00C944E04789484B5826003
:100BE00084BD84B5816084BD85B5826085BD85B5D1
:100BF000816085BD80916E00816080936E0010924F
:100C000081008091810082608093810080918100C9
:100C1000816080938100809180008160809380005A
:100C20008091B10084608093B1008091B0008160B8
:100C30008093B00080917A00846080937A008091E4
:100C40007A00826080937A0080917A00816080933C
:100C50007A0080917A00806880937A001092C100B7
:100C6000E0915901F0915A0182E08083E0915501B1
:100C7000F09156011082E0915701F09158018FECEC
:100C8000808310926101E0915D01F0915E0186E048
:100C90008083E0915B01F0915C01808180618083C1
:100CA000E0915B01F0915C01808188608083E0913C
:100CB0005B01F0915C01808180688083E0915B0141
:100CC000F0915C0180818F7D808382E00E944E04E0
:100CD00060E086E00E94750160E087E00E94750197
:100CE00060E088E00E94750160E089E00E94750183
:100CF0000E94460480E00E94FB0361E571E086EEFD
:100D000091E00E94A60181E00E94FB0360E471E093
:100D100086EE91E00E94A6012FB7F89480914501DC
:100D200090914601A0914701B09148012FBF809357
:100D30003B0190933C01A0933D01B0933E0100E044
:100D400010E082E0B82EAA24A3948FB7F894C09044
:100D50004501D0904601E0904701F09048018FBFD7
:100D600080913F01813009F442C068F0823009F47B
:100D700065C00115110549F30E944902882329F332
:100D80000E940000E2CF80913B0190913C01A09134
:100D90003D01B0913E01A7019601281B390B4A0B7A
:100DA0005B0BDA01C901803D9740A105B10508F34D
:100DB000A0923F010E94460480E00E94FB0363E78B
:100DC00071E086EE91E00E94A60181E00E94FB03A3
:100DD00062E671E086EE91E00E94A601C0923B01BE
:100DE000D0923C01E0923D01F0923E01C2CF809151
:100DF0003B0190913C01A0913D01B0913E01C81A88
:100E0000D90AEA0AFB0A40EDC41647E0D406E10419
:100E1000F10408F4AECFB0923F010E94460480E096
:100E20000E94FB0364E871E086EE91E00E94A60157
:100E300010923A0180E00E9409049BCF24E331E044
:100E400048E351E069E371E086E090E00E94F0023F
:100E5000E82E2EE231E042E351E063E371E087E007
:100E600090E00E94F002F82E28E231E04CE251E0DE
:100E70006DE271E088E090E00E94F002D82F22E25B
:100E800031E046E251E067E271E089E090E00E94E3
:100E9000F00291E0E91290E090FBC0F991E0F912C4
:100EA00090E090FBC1F991E0D13009F090E090FB27
:100EB000C2F991E0813009F090E090FBC3F9D1E0F4
:100EC000C2FD09C0D2E0C3FD06C0D3E0C0FD03C02F
:100ED000D4E0C1FFD0E080913A018D1709F449CFE9
:100EE0008D2F0E940904D0933A0143CFEE0FFF1FCC
:0C0EF0000590F491E02D0994F894FFCFD8
:100EFC00000000007F02CA010C02CC023D021B0262
:100F0C002F0200000000C704CA01ED02EC020D0A1A
:020F1C000000D3
:00000001FF
